:020000020000FC
:040000000C94340028
:1000680008E00EBF0FEF0DBF0FEF04B90EEF0AB98E
:1000780000E00093C50007E60093C40008E1009380
:10008800C10006E00093C200F0E0E2EE15911030E6
:1000980039F00091C00005FFFCCF1093C600F6CFE1
:1000A80000C00091C00007FFFCCF2091C6002F7050
:1000B800213039F0223039F0233039F0243039F04A
:1000C800F0CF31E006C032E004C034E002C038E0CE
:1000D80000C005B1032705B9E4CF2A2A2A20486FB2
:1000E8006C61204C61626F206465204D6963726F9A
:1000F800202A2A2A0A0A4573637269626120312C10
:1001080020322C2033206F203420706172612063EC
:100118006F6E74726F6C6172206C6F73204C454403
:02012800730062
:00000001FF
