:020000020000FC
:0200000033C00B
:0200340047C0C3
:1000680008E00EBF0FEF0DBF0FEF04B900E00AB9AB
:1000780001E000936F00789409B10670102F24D026
:1000880009B10670101709F0F7CF003031F00230CF
:1000980049F0043059F0063069F000E0009381001F
:1000A800289A089503E000938100089504E00093DE
:1000B8008100089505E0009381000895289B02C0FF
:1000C80028981895289A189500E006BD05E005BD02
:1000D80005B300FFFDCF00E005BD01E005BB0895B5
:00000001FF
